{
  "contractName": "Auction",
  "abi": [
    {
      "constant": true,
      "inputs": [
        {
          "name": "",
          "type": "uint256"
        }
      ],
      "name": "items",
      "outputs": [
        {
          "name": "id",
          "type": "uint256"
        },
        {
          "name": "ItemOwner",
          "type": "address"
        },
        {
          "name": "name",
          "type": "string"
        },
        {
          "name": "bidValueDollar",
          "type": "uint256"
        },
        {
          "name": "bidValueStarting",
          "type": "uint256"
        },
        {
          "name": "highestBidder",
          "type": "address"
        },
        {
          "name": "ended",
          "type": "bool"
        },
        {
          "name": "bidValueWei",
          "type": "uint256"
        }
      ],
      "payable": false,
      "stateMutability": "view",
      "type": "function"
    },
    {
      "constant": true,
      "inputs": [],
      "name": "highestBid",
      "outputs": [
        {
          "name": "",
          "type": "uint256"
        }
      ],
      "payable": false,
      "stateMutability": "view",
      "type": "function"
    },
    {
      "constant": true,
      "inputs": [],
      "name": "itemsCount",
      "outputs": [
        {
          "name": "",
          "type": "uint256"
        }
      ],
      "payable": false,
      "stateMutability": "view",
      "type": "function"
    },
    {
      "inputs": [],
      "payable": false,
      "stateMutability": "nonpayable",
      "type": "constructor"
    },
    {
      "anonymous": false,
      "inputs": [
        {
          "indexed": true,
          "name": "itemId",
          "type": "uint256"
        },
        {
          "indexed": false,
          "name": "bidder",
          "type": "address"
        },
        {
          "indexed": false,
          "name": "bidAmountDollar",
          "type": "uint256"
        },
        {
          "indexed": false,
          "name": "bidAmountWei",
          "type": "uint256"
        }
      ],
      "name": "bidEvent",
      "type": "event"
    },
    {
      "anonymous": false,
      "inputs": [
        {
          "indexed": false,
          "name": "winner",
          "type": "address"
        },
        {
          "indexed": false,
          "name": "amount",
          "type": "uint256"
        }
      ],
      "name": "auctionEnded",
      "type": "event"
    },
    {
      "constant": false,
      "inputs": [
        {
          "name": "_ItemId",
          "type": "uint256"
        },
        {
          "name": "_bidAmount",
          "type": "uint256"
        }
      ],
      "name": "bid",
      "outputs": [],
      "payable": true,
      "stateMutability": "payable",
      "type": "function"
    },
    {
      "constant": false,
      "inputs": [
        {
          "name": "_ItemId",
          "type": "uint256"
        }
      ],
      "name": "auctionEnd",
      "outputs": [],
      "payable": false,
      "stateMutability": "nonpayable",
      "type": "function"
    }
  ],
  "bytecode": "0x608060405234801561001057600080fd5b506100576040518060400160405280600d81526020017f56696e746167652057617463680000000000000000000000000000000000000081525060c861008660201b60201c565b610081604051806060016040528060238152602001610aa3602391396101f461008660201b60201c565b610238565b60028054600190810180835560408051610100810182528281523360208083018281528385018a8152600060608601819052608086018b905260a0860181905260c0860181905260e0860181905296875287835294862084518155905196810180546001600160a01b0319166001600160a01b039098169790971790965592518051919694959294929361011f9385019291019061019d565b50606082015160038201556080820151600482015560a082015160058201805460c085015115157401000000000000000000000000000000000000000002600160a01b60ff02196001600160a01b039094166001600160a01b0319909216919091179290921691909117905560e09091015160069091015550505050565b828054600181600116156101000203166002900490600052602060002090601f016020900481019282601f106101de57805160ff191683800117855561020b565b8280016001018555821561020b579182015b8281111561020b5782518255916020019190600101906101f0565b5061021792915061021b565b5090565b61023591905b808211156102175760008155600101610221565b90565b61085c806102476000396000f3fe60806040526004361061004a5760003560e01c806332246e9f1461004f578063598647f81461007b578063bfb231d21461009e578063d57bde7914610199578063e2c03ace146101c0575b600080fd5b34801561005b57600080fd5b506100796004803603602081101561007257600080fd5b50356101d5565b005b6100796004803603604081101561009157600080fd5b5080359060200135610424565b3480156100aa57600080fd5b506100c8600480360360208110156100c157600080fd5b50356106cf565b60405180898152602001886001600160a01b03166001600160a01b0316815260200180602001878152602001868152602001856001600160a01b03166001600160a01b0316815260200184151515158152602001838152602001828103825288818151815260200191508051906020019080838360005b8381101561015757818101518382015260200161013f565b50505050905090810190601f1680156101845780820380516001836020036101000a031916815260200191505b50995050505050505050505060405180910390f35b3480156101a557600080fd5b506101ae6107b1565b60408051918252519081900360200190f35b3480156101cc57600080fd5b506101ae6107b7565b6000811180156101e757506002548111155b61023b5760408051600160e51b62461bcd02815260206004820152601860248201527f73656c6563746564206974656d20697320696e76616c69640000000000000000604482015290519081900360640190fd5b600081815260016020819052604090912001546001600160a01b0316331461029757604051600160e51b62461bcd02815260040180806020018281038252602681526020018061080b6026913960400191505060405180910390fd5b6000818152600160205260409020600301546102e757604051600160e51b62461bcd0281526004018080602001828103825260238152602001806107e86023913960400191505060405180910390fd5b600081815260016020526040902060050154600160a01b900460ff16156103585760408051600160e51b62461bcd02815260206004820152601f60248201527f596f7520616c726561647920656e64656420746869732061756374696f6e2e00604482015290519081900360640190fd5b60008181526001602090815260409182902060058101805474ff00000000000000000000000000000000000000001916600160a01b17815560069091015460048190559054600380546001600160a01b0319166001600160a01b0392831617908190558451911681529182015281517f6e0e2174dbf7b77c08b6f9a2799b9feda84a6d54a5644864582040100a47d4c5929181900390910190a1600454604051339180156108fc02916000818181858888f19350505050158015610420573d6000803e3d6000fd5b5050565b6000828152600160205260409020600501546001600160a01b03163314156104965760408051600160e51b62461bcd02815260206004820152601d60248201527f6572726f7220626964646572206861766520616c726561647920626964000000604482015290519081900360640190fd5b6000821180156104a857506002548211155b6104fc5760408051600160e51b62461bcd02815260206004820152601860248201527f73656c6563746564206974656d20697320696e76616c69640000000000000000604482015290519081900360640190fd5b600082815260016020526040902060030154811161054e57604051600160e51b62461bcd02815260040180806020018281038252602a8152602001806107be602a913960400191505060405180910390fd5b600082815260016020526040902060050154600160a01b900460ff16156105bf5760408051600160e51b62461bcd02815260206004820152601660248201527f41756374696f6e20616c726561647920656e6465642e00000000000000000000604482015290519081900360640190fd5b600082815260016020526040902060050154600380546001600160a01b0319166001600160a01b039092169190911790556004541561064f5760008281526001602052604090206006015434111561064f576003546004546040516001600160a01b039092169181156108fc0291906000818181858888f1935050505015801561064d573d6000803e3d6000fd5b505b6000828152600160209081526040918290206005810180546001600160a01b03191633908117909155346004819055600683018190556003909201859055835190815291820184905281830152905183917f5f809e0f670ff1d5d393b4775ee4f31f942aa16ca64ad7b62b25a95920fa37d1919081900360600190a25050565b6001602081815260009283526040928390208054818401546002808401805488516101009882161598909802600019011691909104601f810186900486028701860190975286865291956001600160a01b039091169492938301828280156107785780601f1061074d57610100808354040283529160200191610778565b820191906000526020600020905b81548152906001019060200180831161075b57829003601f168201915b50505050600383015460048401546005850154600690950154939491939092506001600160a01b03821691600160a01b900460ff169088565b60045481565b6002548156fe4269642076616c756520646f6573206e6f7420657863656564207468652068696768657374206269642e546869732041756374696f6e20646f65736e2774206861766520616e7920626964732e596f7520617265206e6f7420746865206f776e6572206f6620746869732061756374696f6e2ea165627a7a72305820d5a198ca7d7dabc215a80a67a91067d108fd8dcc7413ba0769105b915e19dad8002956696e63656e742056616e20476f6768202d2054686520537461727279204e69676874",
  "source": "pragma solidity >=0.4.0 <0.6.0;\r\n\r\ncontract Auction {\r\n\r\n    struct Item {\r\n        uint id;\r\n        address payable ItemOwner;\r\n        string name;\r\n        uint bidValueDollar;\r\n        uint bidValueStarting;\r\n        address payable highestBidder;\r\n        bool ended;\r\n        uint bidValueWei;\r\n    }\r\n\r\n    // Store accounts that have bids\r\n    mapping(address => uint) pendingReturns;\r\n    mapping(uint => Item) public items;\r\n    uint public itemsCount;\r\n\r\n    address payable lastBidder;\r\n    uint public highestBid;\r\n\r\n    // bid event\r\n    event bidEvent (\r\n        uint indexed itemId,\r\n        address bidder,\r\n        uint bidAmountDollar,\r\n        uint bidAmountWei\r\n    );\r\n\r\n    event auctionEnded (\r\n        address winner,\r\n        uint amount\r\n    );\r\n\r\n    constructor() public {\r\n        addItem(\"Vintage Watch\", 200);\r\n        addItem(\"Vincent Van Gogh - The Starry Night\", 500);\r\n    }\r\n\r\n    function addItem(string memory _name, uint _bidStarting) private {\r\n        address payable itemOwner = msg.sender;\r\n        address payable highestBidder = address(0x0);\r\n        itemsCount++;\r\n        items[itemsCount] = Item(itemsCount, itemOwner, _name, 0, _bidStarting, highestBidder, false, 0);\r\n    }\r\n\r\n    function bid (uint _ItemId, uint _bidAmount) public payable {\r\n        // require first time bidder address - error if not\r\n        require(msg.sender != items[_ItemId].highestBidder,\"error bidder have already bid\");\r\n\r\n        // require a valid item id\r\n        require(_ItemId > 0 && _ItemId <= itemsCount,\"selected item is invalid\");\r\n\r\n        // require bid amount should be greater than the previous bid amount\r\n        require(_bidAmount > items[_ItemId].bidValueDollar, \"Bid value does not exceed the highest bid.\");\r\n\r\n        // require bidding should still be ongoing\r\n        require(!items[_ItemId].ended,\"Auction already ended.\");\r\n\r\n        //previous bidder\r\n        lastBidder = items[_ItemId].highestBidder;\r\n\r\n        if (highestBid != 0) { // bid value should not be 0 to be valid\r\n            // bid value in ether should be less than the new bid value\r\n            if (items[_ItemId].bidValueWei < msg.value) {\r\n                lastBidder.transfer(highestBid);\r\n            }\r\n        }\r\n        // record the bidder address\r\n        items[_ItemId].highestBidder = msg.sender;\r\n        // store highest bid\r\n        highestBid = msg.value;\r\n        // record the highest bid in ether\r\n        items[_ItemId].bidValueWei = msg.value;\r\n        // update item bid value\r\n        items[_ItemId].bidValueDollar = _bidAmount;\r\n\r\n        // trigger bidding event\r\n        emit bidEvent(_ItemId, msg.sender, _bidAmount, msg.value);\r\n    }\r\n\r\n    function auctionEnd (uint _ItemId) public {\r\n        // require valid selected item\r\n        require(_ItemId > 0 && _ItemId <= itemsCount,\"selected item is invalid\");\r\n\r\n        // require Item owner\r\n        require(msg.sender == items[_ItemId].ItemOwner,\"You are not the owner of this auction.\");\r\n\r\n        // require bid value is not 0\r\n        require(items[_ItemId].bidValueDollar != 0,\"This Auction doesn't have any bids.\");\r\n\r\n        // require Item auction is not yet ended\r\n        require(!items[_ItemId].ended,\"You already ended this auction.\");\r\n\r\n        // record Item auction has ended\r\n        items[_ItemId].ended = true;\r\n\r\n        // store highest bid in ether\r\n        highestBid = items[_ItemId].bidValueWei;\r\n\r\n        // store winner\r\n        lastBidder = items[_ItemId].highestBidder;\r\n        emit auctionEnded(lastBidder, highestBid);\r\n\r\n        //  tranfer highest bid to owner of bid\r\n        msg.sender.transfer(highestBid);\r\n    }\r\n}",
  "sourcePath": "C:/Users/litrada.amc/Documents/Blockchain/BidForMe/contracts/Auction.sol",
  "compiler": {
    "name": "solc",
    "version": "0.5.8+commit.23d335f2.Emscripten.clang"
  },
  "schemaVersion": "3.0.11",
  "updatedAt": "2019-08-22T02:36:50.919Z",
  "devdoc": {
    "methods": {}
  },
  "userdoc": {
    "methods": {}
  }
}