{
  "contractName": "Auction",
  "abi": [
    {
      "constant": true,
      "inputs": [
        {
          "name": "",
          "type": "uint256"
        }
      ],
      "name": "items",
      "outputs": [
        {
          "name": "id",
          "type": "uint256"
        },
        {
          "name": "ItemOwner",
          "type": "address"
        },
        {
          "name": "itemsOwned",
          "type": "uint256"
        },
        {
          "name": "name",
          "type": "string"
        },
        {
          "name": "bidValueDollar",
          "type": "uint256"
        },
        {
          "name": "bidValueStarting",
          "type": "uint256"
        },
        {
          "name": "highestBidder",
          "type": "address"
        },
        {
          "name": "ended",
          "type": "bool"
        },
        {
          "name": "bidValueWei",
          "type": "uint256"
        }
      ],
      "payable": false,
      "stateMutability": "view",
      "type": "function"
    },
    {
      "constant": true,
      "inputs": [],
      "name": "highestBid",
      "outputs": [
        {
          "name": "",
          "type": "uint256"
        }
      ],
      "payable": false,
      "stateMutability": "view",
      "type": "function"
    },
    {
      "constant": true,
      "inputs": [],
      "name": "itemsCount",
      "outputs": [
        {
          "name": "",
          "type": "uint256"
        }
      ],
      "payable": false,
      "stateMutability": "view",
      "type": "function"
    },
    {
      "inputs": [],
      "payable": false,
      "stateMutability": "nonpayable",
      "type": "constructor"
    },
    {
      "anonymous": false,
      "inputs": [
        {
          "indexed": true,
          "name": "itemId",
          "type": "uint256"
        },
        {
          "indexed": false,
          "name": "bidder",
          "type": "address"
        },
        {
          "indexed": false,
          "name": "bidAmountDollar",
          "type": "uint256"
        },
        {
          "indexed": false,
          "name": "bidAmountWei",
          "type": "uint256"
        }
      ],
      "name": "bidEvent",
      "type": "event"
    },
    {
      "anonymous": false,
      "inputs": [
        {
          "indexed": false,
          "name": "winner",
          "type": "address"
        },
        {
          "indexed": false,
          "name": "amount",
          "type": "uint256"
        }
      ],
      "name": "auctionEnded",
      "type": "event"
    },
    {
      "constant": false,
      "inputs": [
        {
          "name": "_name",
          "type": "string"
        },
        {
          "name": "_bidStarting",
          "type": "uint256"
        }
      ],
      "name": "addItem",
      "outputs": [
        {
          "name": "",
          "type": "bool"
        }
      ],
      "payable": false,
      "stateMutability": "nonpayable",
      "type": "function"
    },
    {
      "constant": false,
      "inputs": [
        {
          "name": "_ItemId",
          "type": "uint256"
        },
        {
          "name": "_name",
          "type": "string"
        },
        {
          "name": "_bidStarting",
          "type": "uint256"
        }
      ],
      "name": "updateItem",
      "outputs": [
        {
          "name": "",
          "type": "bool"
        }
      ],
      "payable": false,
      "stateMutability": "nonpayable",
      "type": "function"
    },
    {
      "constant": false,
      "inputs": [
        {
          "name": "index",
          "type": "uint256"
        }
      ],
      "name": "removeItem",
      "outputs": [
        {
          "name": "",
          "type": "bool"
        }
      ],
      "payable": false,
      "stateMutability": "nonpayable",
      "type": "function"
    },
    {
      "constant": false,
      "inputs": [
        {
          "name": "_ItemId",
          "type": "uint256"
        },
        {
          "name": "_bidAmount",
          "type": "uint256"
        }
      ],
      "name": "bid",
      "outputs": [
        {
          "name": "",
          "type": "bool"
        }
      ],
      "payable": true,
      "stateMutability": "payable",
      "type": "function"
    },
    {
      "constant": false,
      "inputs": [],
      "name": "withdraw",
      "outputs": [
        {
          "name": "",
          "type": "bool"
        }
      ],
      "payable": true,
      "stateMutability": "payable",
      "type": "function"
    },
    {
      "constant": true,
      "inputs": [],
      "name": "withdrawAmount",
      "outputs": [
        {
          "name": "",
          "type": "bool"
        }
      ],
      "payable": false,
      "stateMutability": "view",
      "type": "function"
    },
    {
      "constant": false,
      "inputs": [
        {
          "name": "_ItemId",
          "type": "uint256"
        }
      ],
      "name": "auctionEnd",
      "outputs": [
        {
          "name": "",
          "type": "bool"
        }
      ],
      "payable": true,
      "stateMutability": "payable",
      "type": "function"
    }
  ],
  "bytecode": "0x608060405234801561001057600080fd5b50610ef4806100206000396000f3fe6080604052600436106100915760003560e01c806362d6bbdf1161005957806362d6bbdf146101c35780637132917114610278578063bfb231d2146102a2578063d57bde79146103a4578063e2c03ace146103cb57610091565b806332246e9f146100965780633ccfd60b146100c7578063534844a2146100cf57806353b200e5146100e4578063598647f8146101a0575b600080fd5b6100b3600480360360208110156100ac57600080fd5b50356103e0565b604080519115158252519081900360200190f35b6100b3610627565b3480156100db57600080fd5b506100b361068e565b3480156100f057600080fd5b506100b36004803603606081101561010757600080fd5b8135919081019060408101602082013564010000000081111561012957600080fd5b82018360208201111561013b57600080fd5b8035906020019184600183028401116401000000008311171561015d57600080fd5b91908080601f01602080910402602001604051908101604052809392919081815260200183838082843760009201919091525092955050913592506106bc915050565b6100b3600480360360408110156101b657600080fd5b50803590602001356107c1565b3480156101cf57600080fd5b506100b3600480360360408110156101e657600080fd5b81019060208101813564010000000081111561020157600080fd5b82018360208201111561021357600080fd5b8035906020019184600183028401116401000000008311171561023557600080fd5b91908080601f0160208091040260200160405190810160405280939291908181526020018383808284376000920191909152509295505091359250610a3d915050565b34801561028457600080fd5b506100b36004803603602081101561029b57600080fd5b5035610b6d565b3480156102ae57600080fd5b506102cc600480360360208110156102c557600080fd5b5035610c56565b604051808a8152602001896001600160a01b03166001600160a01b0316815260200188815260200180602001878152602001868152602001856001600160a01b03166001600160a01b0316815260200184151515158152602001838152602001828103825288818151815260200191508051906020019080838360005b83811015610361578181015183820152602001610349565b50505050905090810190601f16801561038e5780820380516001836020036101000a031916815260200191505b509a505050505050505050505060405180910390f35b3480156103b057600080fd5b506103b9610d40565b60408051918252519081900360200190f35b3480156103d757600080fd5b506103b9610d46565b600081815260026020526040812060060154600160a01b900460ff16156104515760408051600160e51b62461bcd02815260206004820152601f60248201527f596f7520616c726561647920656e64656420746869732061756374696f6e2e00604482015290519081900360640190fd5b60008211801561046357506003548211155b6104b75760408051600160e51b62461bcd02815260206004820152601860248201527f73656c6563746564206974656d20697320696e76616c69640000000000000000604482015290519081900360640190fd5b6000828152600260205260409020600101546001600160a01b0316331461051257604051600160e51b62461bcd028152600401808060200182810382526026815260200180610ea36026913960400191505060405180910390fd5b60008281526002602052604090206004015461056257604051600160e51b62461bcd028152600401808060200182810382526023815260200180610e806023913960400191505060405180910390fd5b600082815260026020908152604091829020600681018054600160a01b60ff021916600160a01b17815560079091015460048190559054600580546001600160a01b0319166001600160a01b0392831617908190558451911681529182015281517f6e0e2174dbf7b77c08b6f9a2799b9feda84a6d54a5644864582040100a47d4c5929181900390910190a1600454604051339180156108fc02916000818181858888f1935050505015801561061c573d6000803e3d6000fd5b50600190505b919050565b33600090815260016020526040812054801561068557336000818152600160205260408082208290555183156108fc0291849190818181858888f193505050506106855733600090815260016020526040812091909155905061068b565b60019150505b90565b3360009081526001602052604081205480156106ae57600191505061068b565b600091505061068b565b5090565b600080841180156106cf57506003548411155b6107235760408051600160e51b62461bcd02815260206004820152601860248201527f73656c6563746564206974656d20697320696e76616c69640000000000000000604482015290519081900360640190fd5b6000848152600260205260409020600101546001600160a01b0316331461077e57604051600160e51b62461bcd028152600401808060200182810382526026815260200180610ea36026913960400191505060405180910390fd5b600084815260026020908152604090912084516107a392600390920191860190610d4c565b50506000928352600260205260409092206005019190915550600190565b6000828152600260205260408120600601546001600160a01b03163314156108335760408051600160e51b62461bcd02815260206004820152601d60248201527f6572726f7220626964646572206861766520616c726561647920626964000000604482015290519081900360640190fd5b60008311801561084557506003548311155b6108995760408051600160e51b62461bcd02815260206004820152601860248201527f73656c6563746564206974656d20697320696e76616c69640000000000000000604482015290519081900360640190fd5b60008381526002602052604090206004015482116108eb57604051600160e51b62461bcd02815260040180806020018281038252602a815260200180610e56602a913960400191505060405180910390fd5b600083815260026020526040902060060154600160a01b900460ff161561095c5760408051600160e51b62461bcd02815260206004820152601660248201527f41756374696f6e20616c726561647920656e6465642e00000000000000000000604482015290519081900360640190fd5b600083815260026020526040902060060154600580546001600160a01b0319166001600160a01b03909216919091179055600454156109ba576004546005546001600160a01b03166000908152600160205260409020805490910190555b6000838152600260209081526040918290206006810180546001600160a01b0319163390811790915534600481815560078401829055909201869055835190815291820185905281830152905184917f5f809e0f670ff1d5d393b4775ee4f31f942aa16ca64ad7b62b25a95920fa37d1919081900360600190a250600192915050565b336000818152602081815260408083208054600190810182556003805482018082558451610120810186528181528087018981529454818701908152606082018c8152608083018a905260a083018c905260c083018a905260e083018a905261010083018a9052928952600280895296892082518155955194860180546001600160a01b0319166001600160a01b03909616959095179094559251948401949094559251805195969587959294610af993908501920190610d4c565b506080820151600482015560a0820151600582015560c082015160068201805460e08501511515600160a01b02600160a01b60ff02196001600160a01b039094166001600160a01b031990921691909117929092169190911790556101009091015160079091015550600191505092915050565b6000600354821161062257815b6003548111610c2a5760018181016000908152600260208190526040808320805486855291842060001992830181558186015481870180546001600160a01b0319166001600160a01b03909216919091179055818401548301818501559386905260039081018054610c019692909501949093918116156101000290920190911604610dc6565b506001810160008181526002602052604080822060059081015494835291200191909155610b7a565b505033600090815260208190526040902080546000199081019091556003805490910190556001610622565b60026020818152600092835260409283902080546001808301548386015460038501805489516101009582161595909502600019011697909704601f810187900487028401870190985287835292966001600160a01b03909116959294919291830182828015610d075780601f10610cdc57610100808354040283529160200191610d07565b820191906000526020600020905b815481529060010190602001808311610cea57829003601f168201915b50505050600483015460058401546006850154600790950154939491939092506001600160a01b03821691600160a01b900460ff169089565b60045481565b60035481565b828054600181600116156101000203166002900490600052602060002090601f016020900481019282601f10610d8d57805160ff1916838001178555610dba565b82800160010185558215610dba579182015b82811115610dba578251825591602001919060010190610d9f565b506106b8929150610e3b565b828054600181600116156101000203166002900490600052602060002090601f016020900481019282601f10610dff5780548555610dba565b82800160010185558215610dba57600052602060002091601f016020900482015b82811115610dba578254825591600101919060010190610e20565b61068b91905b808211156106b85760008155600101610e4156fe4269642076616c756520646f6573206e6f7420657863656564207468652068696768657374206269642e546869732041756374696f6e20646f65736e2774206861766520616e7920626964732e596f7520617265206e6f7420746865206f776e6572206f6620746869732061756374696f6e2ea165627a7a723058202e6994807bde54d0f36e2f622410da96b768f90cd8c337ba6879d67a9de4e7410029",
  "source": "pragma solidity >=0.4.0 <0.6.0;\r\n\r\ncontract Auction {\r\n\r\n    struct Item {\r\n        uint id;\r\n        address payable ItemOwner;\r\n        uint itemsOwned;\r\n        string name;\r\n        uint bidValueDollar;\r\n        uint bidValueStarting;\r\n        address payable highestBidder;\r\n        bool ended;\r\n        uint bidValueWei;\r\n    }\r\n\r\n    // Store accounts that have bids\r\n    mapping(address => uint) itemOwned;\r\n    mapping(address => uint) pendingReturns;\r\n    mapping(uint => Item) public items;\r\n\r\n    uint public itemsCount;\r\n    uint public highestBid;\r\n    address payable lastBidder;\r\n\r\n    // bid event\r\n    event bidEvent (\r\n        uint indexed itemId,\r\n        address bidder,\r\n        uint bidAmountDollar,\r\n        uint bidAmountWei\r\n    );\r\n\r\n    event auctionEnded (\r\n        address winner,\r\n        uint amount\r\n    );\r\n\r\n    constructor() public {\r\n    }\r\n\r\n    function addItem(string memory _name, uint _bidStarting) public returns (bool) {\r\n        address payable itemOwner = msg.sender;\r\n        itemOwned[msg.sender] += 1;\r\n        address payable highestBidder = address(0x0);\r\n        itemsCount++;\r\n        items[itemsCount] = Item(itemsCount, itemOwner, itemOwned[msg.sender], _name, 0, _bidStarting, highestBidder, false, 0);\r\n\r\n        return true;\r\n    }\r\n\r\n    function updateItem(uint _ItemId, string memory _name, uint _bidStarting) public returns (bool) {\r\n        // require a valid item id\r\n        require(_ItemId > 0 && _ItemId <= itemsCount,\"selected item is invalid\");\r\n        // require Item owner\r\n        require(msg.sender == items[_ItemId].ItemOwner,\"You are not the owner of this auction.\");\r\n\r\n        items[_ItemId].name = _name;\r\n        items[_ItemId].bidValueStarting = _bidStarting;\r\n\r\n        return true;\r\n    }\r\n\r\n    function removeItem(uint index) public returns (bool) {\r\n        if (index <= itemsCount) {\r\n            for (uint i = index; i <= itemsCount; i++) {\r\n                items[i].id = items[i+1].id - 1;\r\n                items[i].ItemOwner = items[i+1].ItemOwner;\r\n                items[i].itemsOwned = items[i+1].itemsOwned - 1;\r\n                items[i].name = items[i+1].name;\r\n                items[i].bidValueStarting = items[i+1].bidValueStarting;\r\n            }\r\n            itemOwned[msg.sender] -= 1;\r\n            itemsCount--;\r\n\r\n            return true;\r\n        }\r\n    }\r\n\r\n    function bid (uint _ItemId, uint _bidAmount) public payable returns (bool) {\r\n        // require first time bidder address - error if not\r\n        require(msg.sender != items[_ItemId].highestBidder,\"error bidder have already bid\");\r\n\r\n        // require a valid item id\r\n        require(_ItemId > 0 && _ItemId <= itemsCount,\"selected item is invalid\");\r\n\r\n        // require bid amount should be greater than the previous bid amount\r\n        require(_bidAmount > items[_ItemId].bidValueDollar, \"Bid value does not exceed the highest bid.\");\r\n\r\n        // require bidding should still be ongoing\r\n        require(!items[_ItemId].ended,\"Auction already ended.\");\r\n\r\n        //previous bidder\r\n        lastBidder = items[_ItemId].highestBidder;\r\n\r\n        if (highestBid != 0) { // bid value should not be 0 to be valid\r\n            pendingReturns[lastBidder] += highestBid;\r\n        }\r\n        // record the bidder address\r\n        items[_ItemId].highestBidder = msg.sender;\r\n        // store highest bid\r\n        highestBid = msg.value;\r\n        // record the highest bid in ether\r\n        items[_ItemId].bidValueWei = msg.value;\r\n        // update item bid value\r\n        items[_ItemId].bidValueDollar = _bidAmount;\r\n\r\n        // trigger bidding event\r\n        emit bidEvent(_ItemId, msg.sender, _bidAmount, msg.value);\r\n\r\n        return true;\r\n    }\r\n\r\n    function withdraw() public payable returns (bool) {\r\n        uint amount = pendingReturns[msg.sender];\r\n        if (amount > 0) {\r\n            pendingReturns[msg.sender] = 0;\r\n            if (!msg.sender.send(amount)) {\r\n                // No need to call throw here, just reset the amount owing\r\n                pendingReturns[msg.sender] = amount;\r\n                return false;\r\n            }\r\n        }\r\n        return true;\r\n    }\r\n\r\n    function withdrawAmount() public view returns (bool) {\r\n        uint amount = pendingReturns[msg.sender];\r\n        if(amount > 0) {\r\n            return true;\r\n        } else {\r\n            return false;\r\n        }\r\n    }\r\n\r\n    function auctionEnd (uint _ItemId) public payable returns (bool) {\r\n        // require Item auction is not yet ended\r\n        require(!items[_ItemId].ended,\"You already ended this auction.\");\r\n\r\n        // require a valid item id\r\n        require(_ItemId > 0 && _ItemId <= itemsCount,\"selected item is invalid\");\r\n\r\n        // require Item owner\r\n        require(msg.sender == items[_ItemId].ItemOwner,\"You are not the owner of this auction.\");\r\n\r\n        // require bid value is not 0\r\n        require(items[_ItemId].bidValueDollar != 0,\"This Auction doesn't have any bids.\");\r\n\r\n        // record Item auction has ended\r\n        items[_ItemId].ended = true;\r\n\r\n        // store highest bid in ether\r\n        highestBid = items[_ItemId].bidValueWei;\r\n\r\n        // store winner\r\n        lastBidder = items[_ItemId].highestBidder;\r\n        emit auctionEnded(lastBidder, highestBid);\r\n\r\n        //  tranfer highest bid to owner of bid\r\n        msg.sender.transfer(highestBid);\r\n\r\n        return true;\r\n    }\r\n}",
  "sourcePath": "C:/Users/litrada.amc/Documents/Blockchain/BidForMe/contracts/Auction.sol",
  "compiler": {
    "name": "solc",
    "version": "0.5.8+commit.23d335f2.Emscripten.clang"
  },
  "schemaVersion": "3.0.11",
  "updatedAt": "2019-09-03T05:51:33.182Z",
  "devdoc": {
    "methods": {}
  },
  "userdoc": {
    "methods": {}
  }
}