{
  "contractName": "Auction",
  "abi": [
    {
      "constant": true,
      "inputs": [
        {
          "name": "",
          "type": "uint256"
        }
      ],
      "name": "items",
      "outputs": [
        {
          "name": "id",
          "type": "uint256"
        },
        {
          "name": "ItemOwner",
          "type": "address"
        },
        {
          "name": "name",
          "type": "string"
        },
        {
          "name": "bidValueDollar",
          "type": "uint256"
        },
        {
          "name": "bidValueStarting",
          "type": "uint256"
        },
        {
          "name": "highestBidder",
          "type": "address"
        },
        {
          "name": "ended",
          "type": "bool"
        },
        {
          "name": "bidValueWei",
          "type": "uint256"
        }
      ],
      "payable": false,
      "stateMutability": "view",
      "type": "function"
    },
    {
      "constant": true,
      "inputs": [],
      "name": "highestBid",
      "outputs": [
        {
          "name": "",
          "type": "uint256"
        }
      ],
      "payable": false,
      "stateMutability": "view",
      "type": "function"
    },
    {
      "constant": true,
      "inputs": [],
      "name": "itemsCount",
      "outputs": [
        {
          "name": "",
          "type": "uint256"
        }
      ],
      "payable": false,
      "stateMutability": "view",
      "type": "function"
    },
    {
      "inputs": [],
      "payable": false,
      "stateMutability": "nonpayable",
      "type": "constructor"
    },
    {
      "anonymous": false,
      "inputs": [
        {
          "indexed": true,
          "name": "itemId",
          "type": "uint256"
        },
        {
          "indexed": false,
          "name": "bidder",
          "type": "address"
        },
        {
          "indexed": false,
          "name": "bidAmountDollar",
          "type": "uint256"
        },
        {
          "indexed": false,
          "name": "bidAmountWei",
          "type": "uint256"
        }
      ],
      "name": "bidEvent",
      "type": "event"
    },
    {
      "anonymous": false,
      "inputs": [
        {
          "indexed": false,
          "name": "winner",
          "type": "address"
        },
        {
          "indexed": false,
          "name": "amount",
          "type": "uint256"
        }
      ],
      "name": "auctionEnded",
      "type": "event"
    },
    {
      "constant": false,
      "inputs": [
        {
          "name": "_name",
          "type": "string"
        },
        {
          "name": "_bidStarting",
          "type": "uint256"
        }
      ],
      "name": "addItem",
      "outputs": [
        {
          "name": "",
          "type": "bool"
        }
      ],
      "payable": false,
      "stateMutability": "nonpayable",
      "type": "function"
    },
    {
      "constant": false,
      "inputs": [
        {
          "name": "_ItemId",
          "type": "uint256"
        },
        {
          "name": "_bidAmount",
          "type": "uint256"
        }
      ],
      "name": "bid",
      "outputs": [
        {
          "name": "",
          "type": "bool"
        }
      ],
      "payable": true,
      "stateMutability": "payable",
      "type": "function"
    },
    {
      "constant": false,
      "inputs": [],
      "name": "withdraw",
      "outputs": [
        {
          "name": "",
          "type": "bool"
        }
      ],
      "payable": true,
      "stateMutability": "payable",
      "type": "function"
    },
    {
      "constant": true,
      "inputs": [],
      "name": "withdrawAmount",
      "outputs": [
        {
          "name": "",
          "type": "bool"
        }
      ],
      "payable": false,
      "stateMutability": "view",
      "type": "function"
    },
    {
      "constant": false,
      "inputs": [
        {
          "name": "_ItemId",
          "type": "uint256"
        }
      ],
      "name": "auctionEnd",
      "outputs": [],
      "payable": true,
      "stateMutability": "payable",
      "type": "function"
    }
  ],
  "bytecode": "0x608060405234801561001057600080fd5b506100576040518060400160405280600d81526020017f56696e746167652057617463680000000000000000000000000000000000000081525060c861008860201b60201c565b50610082604051806060016040528060238152602001610daf602391396101f461008860201b60201c565b50610243565b60028054600190810180835560408051610100810182528281523360208083018281528385018a8152600060608601819052608086018b905260a0860181905260c0860181905260e0860181905296875287835294862084518155905196810180546001600160a01b0319166001600160a01b0390981697909717909655925180519496919587959394909361012493850192909101906101a8565b50606082015160038201556080820151600482015560a082015160058201805460c085015115157401000000000000000000000000000000000000000002600160a01b60ff02196001600160a01b039094166001600160a01b0319909216919091179290921691909117905560e09091015160069091015550600191505092915050565b828054600181600116156101000203166002900490600052602060002090601f016020900481019282601f106101e957805160ff1916838001178555610216565b82800160010185558215610216579182015b828111156102165782518255916020019190600101906101fb565b50610222929150610226565b5090565b61024091905b80821115610222576000815560010161022c565b90565b610b5d806102526000396000f3fe60806040526004361061007b5760003560e01c806362d6bbdf1161004e57806362d6bbdf146100f3578063bfb231d2146101a8578063d57bde79146102a3578063e2c03ace146102ca5761007b565b806332246e9f146100805780633ccfd60b1461009f578063534844a2146100bb578063598647f8146100d0575b600080fd5b61009d6004803603602081101561009657600080fd5b50356102df565b005b6100a7610520565b604080519115158252519081900360200190f35b3480156100c757600080fd5b506100a7610587565b6100a7600480360360408110156100e657600080fd5b50803590602001356105b5565b3480156100ff57600080fd5b506100a76004803603604081101561011657600080fd5b81019060208101813564010000000081111561013157600080fd5b82018360208201111561014357600080fd5b8035906020019184600183028401116401000000008311171561016557600080fd5b91908080601f0160208091040260200160405190810160405280939291908181526020018383808284376000920191909152509295505091359250610833915050565b3480156101b457600080fd5b506101d2600480360360208110156101cb57600080fd5b5035610942565b60405180898152602001886001600160a01b03166001600160a01b0316815260200180602001878152602001868152602001856001600160a01b03166001600160a01b0316815260200184151515158152602001838152602001828103825288818151815260200191508051906020019080838360005b83811015610261578181015183820152602001610249565b50505050905090810190601f16801561028e5780820380516001836020036101000a031916815260200191505b50995050505050505050505060405180910390f35b3480156102af57600080fd5b506102b8610a24565b60408051918252519081900360200190f35b3480156102d657600080fd5b506102b8610a2a565b600081815260016020526040902060050154600160a01b900460ff16156103505760408051600160e51b62461bcd02815260206004820152601f60248201527f596f7520616c726561647920656e64656420746869732061756374696f6e2e00604482015290519081900360640190fd5b60008111801561036257506002548111155b6103b65760408051600160e51b62461bcd02815260206004820152601860248201527f73656c6563746564206974656d20697320696e76616c69640000000000000000604482015290519081900360640190fd5b600081815260016020819052604090912001546001600160a01b0316331461041257604051600160e51b62461bcd028152600401808060200182810382526026815260200180610b0c6026913960400191505060405180910390fd5b60008181526001602052604090206003015461046257604051600160e51b62461bcd028152600401808060200182810382526023815260200180610ae96023913960400191505060405180910390fd5b600081815260016020908152604091829020600581018054600160a01b60ff021916600160a01b17815560069091015460048190559054600380546001600160a01b0319166001600160a01b0392831617908190558451911681529182015281517f6e0e2174dbf7b77c08b6f9a2799b9feda84a6d54a5644864582040100a47d4c5929181900390910190a1600454604051339180156108fc02916000818181858888f1935050505015801561051c573d6000803e3d6000fd5b5050565b33600090815260208190526040812054801561057e57336000818152602081905260408082208290555183156108fc0291849190818181858888f1935050505061057e57336000908152602081905260408120919091559050610584565b60019150505b90565b3360009081526020819052604081205480156105a7576001915050610584565b6000915050610584565b5090565b6000828152600160205260408120600501546001600160a01b03163314156106275760408051600160e51b62461bcd02815260206004820152601d60248201527f6572726f7220626964646572206861766520616c726561647920626964000000604482015290519081900360640190fd5b60008311801561063957506002548311155b61068d5760408051600160e51b62461bcd02815260206004820152601860248201527f73656c6563746564206974656d20697320696e76616c69640000000000000000604482015290519081900360640190fd5b60008381526001602052604090206003015482116106df57604051600160e51b62461bcd02815260040180806020018281038252602a815260200180610abf602a913960400191505060405180910390fd5b600083815260016020526040902060050154600160a01b900460ff16156107505760408051600160e51b62461bcd02815260206004820152601660248201527f41756374696f6e20616c726561647920656e6465642e00000000000000000000604482015290519081900360640190fd5b600083815260016020526040902060050154600380546001600160a01b0319166001600160a01b03909216919091179055600454156107ae576004546003546001600160a01b03166000908152602081905260409020805490910190555b6000838152600160209081526040918290206005810180546001600160a01b03191633908117909155346004819055600683018190556003909201869055835190815291820185905281830152905184917f5f809e0f670ff1d5d393b4775ee4f31f942aa16ca64ad7b62b25a95920fa37d1919081900360600190a250600192915050565b60028054600190810180835560408051610100810182528281523360208083018281528385018a8152600060608601819052608086018b905260a0860181905260c0860181905260e0860181905296875287835294862084518155905196810180546001600160a01b0319166001600160a01b039098169790971790965592518051949691958795939490936108cf9385019290910190610a30565b50606082015160038201556080820151600482015560a082015160058201805460c08501511515600160a01b02600160a01b60ff02196001600160a01b039094166001600160a01b0319909216919091179290921691909117905560e09091015160069091015550600191505092915050565b6001602081815260009283526040928390208054818401546002808401805488516101009882161598909802600019011691909104601f810186900486028701860190975286865291956001600160a01b039091169492938301828280156109eb5780601f106109c0576101008083540402835291602001916109eb565b820191906000526020600020905b8154815290600101906020018083116109ce57829003601f168201915b50505050600383015460048401546005850154600690950154939491939092506001600160a01b03821691600160a01b900460ff169088565b60045481565b60025481565b828054600181600116156101000203166002900490600052602060002090601f016020900481019282601f10610a7157805160ff1916838001178555610a9e565b82800160010185558215610a9e579182015b82811115610a9e578251825591602001919060010190610a83565b506105b1926105849250905b808211156105b15760008155600101610aaa56fe4269642076616c756520646f6573206e6f7420657863656564207468652068696768657374206269642e546869732041756374696f6e20646f65736e2774206861766520616e7920626964732e596f7520617265206e6f7420746865206f776e6572206f6620746869732061756374696f6e2ea165627a7a72305820f4ee9bc866a6928795e0c5b1bc27055e6c744a16a28908d0f600f8e0586458f4002956696e63656e742056616e20476f6768202d2054686520537461727279204e69676874",
  "source": "pragma solidity >=0.4.0 <0.6.0;\r\n\r\ncontract Auction {\r\n\r\n    struct Item {\r\n        uint id;\r\n        address payable ItemOwner;\r\n        string name;\r\n        uint bidValueDollar;\r\n        uint bidValueStarting;\r\n        address payable highestBidder;\r\n        bool ended;\r\n        uint bidValueWei;\r\n    }\r\n\r\n    // Store accounts that have bids\r\n    mapping(address => uint) pendingReturns;\r\n    mapping(uint => Item) public items;\r\n    uint public itemsCount;\r\n\r\n    address payable lastBidder;\r\n    uint public highestBid;\r\n\r\n    // bid event\r\n    event bidEvent (\r\n        uint indexed itemId,\r\n        address bidder,\r\n        uint bidAmountDollar,\r\n        uint bidAmountWei\r\n    );\r\n\r\n    event auctionEnded (\r\n        address winner,\r\n        uint amount\r\n    );\r\n\r\n    constructor() public {\r\n        addItem(\"Vintage Watch\", 200);\r\n        addItem(\"Vincent Van Gogh - The Starry Night\", 500);\r\n    }\r\n\r\n    function addItem(string memory _name, uint _bidStarting) public returns (bool) {\r\n        address payable itemOwner = msg.sender;\r\n        address payable highestBidder = address(0x0);\r\n        itemsCount++;\r\n        items[itemsCount] = Item(itemsCount, itemOwner, _name, 0, _bidStarting, highestBidder, false, 0);\r\n\r\n        return true;\r\n    }\r\n\r\n    function bid (uint _ItemId, uint _bidAmount) public payable returns (bool) {\r\n        // require first time bidder address - error if not\r\n        require(msg.sender != items[_ItemId].highestBidder,\"error bidder have already bid\");\r\n\r\n        // require a valid item id\r\n        require(_ItemId > 0 && _ItemId <= itemsCount,\"selected item is invalid\");\r\n\r\n        // require bid amount should be greater than the previous bid amount\r\n        require(_bidAmount > items[_ItemId].bidValueDollar, \"Bid value does not exceed the highest bid.\");\r\n\r\n        // require bidding should still be ongoing\r\n        require(!items[_ItemId].ended,\"Auction already ended.\");\r\n\r\n        //previous bidder\r\n        lastBidder = items[_ItemId].highestBidder;\r\n\r\n        if (highestBid != 0) { // bid value should not be 0 to be valid\r\n            pendingReturns[lastBidder] += highestBid;\r\n        }\r\n        // record the bidder address\r\n        items[_ItemId].highestBidder = msg.sender;\r\n        // store highest bid\r\n        highestBid = msg.value;\r\n        // record the highest bid in ether\r\n        items[_ItemId].bidValueWei = msg.value;\r\n        // update item bid value\r\n        items[_ItemId].bidValueDollar = _bidAmount;\r\n\r\n        // trigger bidding event\r\n        emit bidEvent(_ItemId, msg.sender, _bidAmount, msg.value);\r\n\r\n        return true;\r\n    }\r\n\r\n    function withdraw() public payable returns (bool) {\r\n        uint amount = pendingReturns[msg.sender];\r\n        if (amount > 0) {\r\n            pendingReturns[msg.sender] = 0;\r\n            if (!msg.sender.send(amount)) {\r\n                // No need to call throw here, just reset the amount owing\r\n                pendingReturns[msg.sender] = amount;\r\n                return false;\r\n            }\r\n        }\r\n        return true;\r\n    }\r\n\r\n    function withdrawAmount() public view returns (bool) {\r\n        uint amount = pendingReturns[msg.sender];\r\n        if(amount > 0) {\r\n            return true;\r\n        } else {\r\n            return false;\r\n        }\r\n    }\r\n\r\n    function auctionEnd (uint _ItemId) public payable {\r\n        // require Item auction is not yet ended\r\n        require(!items[_ItemId].ended,\"You already ended this auction.\");\r\n\r\n        // require a valid item id\r\n        require(_ItemId > 0 && _ItemId <= itemsCount,\"selected item is invalid\");\r\n\r\n        // require Item owner\r\n        require(msg.sender == items[_ItemId].ItemOwner,\"You are not the owner of this auction.\");\r\n\r\n        // require bid value is not 0\r\n        require(items[_ItemId].bidValueDollar != 0,\"This Auction doesn't have any bids.\");\r\n\r\n        // record Item auction has ended\r\n        items[_ItemId].ended = true;\r\n\r\n        // store highest bid in ether\r\n        highestBid = items[_ItemId].bidValueWei;\r\n\r\n        // store winner\r\n        lastBidder = items[_ItemId].highestBidder;\r\n        emit auctionEnded(lastBidder, highestBid);\r\n\r\n        //  tranfer highest bid to owner of bid\r\n        msg.sender.transfer(highestBid);\r\n    }\r\n}",
  "sourcePath": "C:/Users/litrada.amc/Documents/Blockchain/BidForMe/contracts/Auction.sol",
  "compiler": {
    "name": "solc",
    "version": "0.5.8+commit.23d335f2.Emscripten.clang"
  },
  "schemaVersion": "3.0.11",
  "updatedAt": "2019-08-29T06:43:39.056Z",
  "devdoc": {
    "methods": {}
  },
  "userdoc": {
    "methods": {}
  }
}