{
  "contractName": "Auction",
  "abi": [
    {
      "constant": true,
      "inputs": [
        {
          "name": "",
          "type": "uint256"
        }
      ],
      "name": "items",
      "outputs": [
        {
          "name": "id",
          "type": "uint256"
        },
        {
          "name": "ItemOwner",
          "type": "address"
        },
        {
          "name": "name",
          "type": "string"
        },
        {
          "name": "bidValueDollar",
          "type": "uint256"
        },
        {
          "name": "bidValueStarting",
          "type": "uint256"
        },
        {
          "name": "highestBidder",
          "type": "address"
        },
        {
          "name": "ended",
          "type": "bool"
        },
        {
          "name": "bidValueWei",
          "type": "uint256"
        }
      ],
      "payable": false,
      "stateMutability": "view",
      "type": "function"
    },
    {
      "constant": true,
      "inputs": [],
      "name": "highestBid",
      "outputs": [
        {
          "name": "",
          "type": "uint256"
        }
      ],
      "payable": false,
      "stateMutability": "view",
      "type": "function"
    },
    {
      "constant": true,
      "inputs": [],
      "name": "itemsCount",
      "outputs": [
        {
          "name": "",
          "type": "uint256"
        }
      ],
      "payable": false,
      "stateMutability": "view",
      "type": "function"
    },
    {
      "inputs": [],
      "payable": false,
      "stateMutability": "nonpayable",
      "type": "constructor"
    },
    {
      "anonymous": false,
      "inputs": [
        {
          "indexed": true,
          "name": "itemId",
          "type": "uint256"
        },
        {
          "indexed": false,
          "name": "bidder",
          "type": "address"
        },
        {
          "indexed": false,
          "name": "bidAmountDollar",
          "type": "uint256"
        },
        {
          "indexed": false,
          "name": "bidAmountWei",
          "type": "uint256"
        }
      ],
      "name": "bidEvent",
      "type": "event"
    },
    {
      "anonymous": false,
      "inputs": [
        {
          "indexed": false,
          "name": "winner",
          "type": "address"
        },
        {
          "indexed": false,
          "name": "amount",
          "type": "uint256"
        }
      ],
      "name": "auctionEnded",
      "type": "event"
    },
    {
      "constant": false,
      "inputs": [
        {
          "name": "_ItemId",
          "type": "uint256"
        },
        {
          "name": "_bidAmount",
          "type": "uint256"
        }
      ],
      "name": "bid",
      "outputs": [],
      "payable": true,
      "stateMutability": "payable",
      "type": "function"
    },
    {
      "constant": true,
      "inputs": [],
      "name": "amountBid",
      "outputs": [
        {
          "name": "",
          "type": "uint256"
        }
      ],
      "payable": false,
      "stateMutability": "view",
      "type": "function"
    },
    {
      "constant": false,
      "inputs": [],
      "name": "withdraw",
      "outputs": [],
      "payable": false,
      "stateMutability": "nonpayable",
      "type": "function"
    },
    {
      "constant": false,
      "inputs": [
        {
          "name": "_ItemId",
          "type": "uint256"
        }
      ],
      "name": "auctionEnd",
      "outputs": [],
      "payable": false,
      "stateMutability": "nonpayable",
      "type": "function"
    },
    {
      "constant": true,
      "inputs": [],
      "name": "showSender",
      "outputs": [
        {
          "name": "",
          "type": "address"
        }
      ],
      "payable": false,
      "stateMutability": "view",
      "type": "function"
    }
  ],
  "bytecode": "0x608060405234801561001057600080fd5b5061006c7391ebdae4575f14d2b7d1097bb7932a252986ef866040518060400160405280600d81526020017f56696e746167652057617463680000000000000000000000000000000000000081525060c86100b060201b60201c565b6100ab738d477323102b4585c59a48958f4d35f751342ab9604051806060016040528060238152602001610bf7602391396101f46100b060201b60201c565b610266565b60028054600190810180835560408051610100810182528281526001600160a01b0388811660208084019182528385018a8152600060608601819052608086018b905260a0860181905260c0860181905260e0860181905296875287825294862084518155915196820180546001600160a01b03191697909316969096179091559151805193959194929361014d939285019291909101906101cb565b50606082015160038201556080820151600482015560a082015160058201805460c085015115157401000000000000000000000000000000000000000002600160a01b60ff02196001600160a01b039094166001600160a01b0319909216919091179290921691909117905560e09091015160069091015550505050565b828054600181600116156101000203166002900490600052602060002090601f016020900481019282601f1061020c57805160ff1916838001178555610239565b82800160010185558215610239579182015b8281111561023957825182559160200191906001019061021e565b50610245929150610249565b5090565b61026391905b80821115610245576000815560010161024f565b90565b610982806102756000396000f3fe60806040526004361061007b5760003560e01c8063bfb231d21161004e578063bfb231d214610115578063c597777014610210578063d57bde7914610237578063e2c03ace1461024c5761007b565b806332246e9f146100805780633ccfd60b146100ac578063598647f8146100c1578063a4d64ff4146100e4575b600080fd5b34801561008c57600080fd5b506100aa600480360360208110156100a357600080fd5b5035610261565b005b3480156100b857600080fd5b506100aa61044a565b6100aa600480360360408110156100d757600080fd5b5080359060200135610510565b3480156100f057600080fd5b506100f96107bb565b604080516001600160a01b039092168252519081900360200190f35b34801561012157600080fd5b5061013f6004803603602081101561013857600080fd5b50356107bf565b60405180898152602001886001600160a01b03166001600160a01b0316815260200180602001878152602001868152602001856001600160a01b03166001600160a01b0316815260200184151515158152602001838152602001828103825288818151815260200191508051906020019080838360005b838110156101ce5781810151838201526020016101b6565b50505050905090810190601f1680156101fb5780820380516001836020036101000a031916815260200191505b50995050505050505050505060405180910390f35b34801561021c57600080fd5b506102256108a1565b60408051918252519081900360200190f35b34801561024357600080fd5b506102256108b4565b34801561025857600080fd5b506102256108ba565b600081815260016020819052604090912001546001600160a01b031633146102bd57604051600160e51b62461bcd02815260040180806020018281038252602681526020018061090e6026913960400191505060405180910390fd5b60008181526001602052604090206003015461030d57604051600160e51b62461bcd0281526004018080602001828103825260238152602001806108eb6023913960400191505060405180910390fd5b600081815260016020526040902060050154600160a01b900460ff161561037e5760408051600160e51b62461bcd02815260206004820152601f60248201527f596f7520616c726561647920656e64656420746869732061756374696f6e2e00604482015290519081900360640190fd5b60008181526001602090815260409182902060058101805474ff00000000000000000000000000000000000000001916600160a01b17815560069091015460048190559054600380546001600160a01b0319166001600160a01b0392831617908190558451911681529182015281517f6e0e2174dbf7b77c08b6f9a2799b9feda84a6d54a5644864582040100a47d4c5929181900390910190a1600454604051339180156108fc02916000818181858888f19350505050158015610446573d6000803e3d6000fd5b5050565b336000908152602081905260409020548061049957604051600160e51b62461bcd0281526004018080602001828103825260238152602001806109346023913960400191505060405180910390fd5b801561050d57336000818152602081905260408082208290555183156108fc0291849190818181858888f193505050506104e0573360009081526020819052604090208190555b604051339082156108fc029083906000818181858888f19350505050158015610446573d6000803e3d6000fd5b50565b6000828152600160205260409020600501546001600160a01b03163314156105825760408051600160e51b62461bcd02815260206004820152601d60248201527f6572726f7220626964646572206861766520616c726561647920626964000000604482015290519081900360640190fd5b60008211801561059457506002548211155b6105e85760408051600160e51b62461bcd02815260206004820152601860248201527f73656c6563746564206974656d20697320696e76616c69640000000000000000604482015290519081900360640190fd5b600082815260016020526040902060030154811161063a57604051600160e51b62461bcd02815260040180806020018281038252602a8152602001806108c1602a913960400191505060405180910390fd5b600082815260016020526040902060050154600160a01b900460ff16156106ab5760408051600160e51b62461bcd02815260206004820152601660248201527f41756374696f6e20616c726561647920656e6465642e00000000000000000000604482015290519081900360640190fd5b600082815260016020526040902060050154600380546001600160a01b0319166001600160a01b039092169190911790556004541561073b5760008281526001602052604090206006015434111561073b576003546004546040516001600160a01b039092169181156108fc0291906000818181858888f19350505050158015610739573d6000803e3d6000fd5b505b6000828152600160209081526040918290206005810180546001600160a01b03191633908117909155346004819055600683018190556003909201859055835190815291820184905281830152905183917f5f809e0f670ff1d5d393b4775ee4f31f942aa16ca64ad7b62b25a95920fa37d1919081900360600190a25050565b3390565b6001602081815260009283526040928390208054818401546002808401805488516101009882161598909802600019011691909104601f810186900486028701860190975286865291956001600160a01b039091169492938301828280156108685780601f1061083d57610100808354040283529160200191610868565b820191906000526020600020905b81548152906001019060200180831161084b57829003601f168201915b50505050600383015460048401546005850154600690950154939491939092506001600160a01b03821691600160a01b900460ff169088565b3360009081526020819052604090205490565b60045481565b6002548156fe4269642076616c756520646f6573206e6f7420657863656564207468652068696768657374206269642e546869732041756374696f6e20646f65736e2774206861766520616e7920626964732e596f7520617265206e6f7420746865206f776e6572206f6620746869732061756374696f6e2e596f7520646f6e74206861766520616e79206d6f6e657920746f207769746864726177a165627a7a72305820e0f313b697f81556b27c88d6e0b129ecd93102ef7a28fdf10359fa35e3d270a5002956696e63656e742056616e20476f6768202d2054686520537461727279204e69676874",
  "source": "pragma solidity >=0.4.0 <0.6.0;\n\ncontract Auction {\n\n    struct Item {\n        uint id;\n        address ItemOwner;\n        string name;\n        uint bidValueDollar;\n        uint bidValueStarting;\n        address payable highestBidder;\n        bool ended;\n        uint bidValueWei;\n    }\n\n    // Store accounts that have bids\n    mapping(address => uint) pendingReturns;\n    mapping(uint => Item) public items;\n    uint public itemsCount;\n\n    address payable lastBidder;\n    uint public highestBid;\n\n    // bid event\n    event bidEvent (\n        uint indexed itemId,\n        address bidder,\n        uint bidAmountDollar,\n        uint bidAmountWei\n    );\n\n    event auctionEnded (\n        address winner,\n        uint amount\n    );\n\n    constructor() public {\n        addItem(0x91ebdAE4575F14d2B7d1097BB7932A252986ef86, \"Vintage Watch\", 200);\n        addItem(0x8d477323102B4585C59A48958f4D35F751342Ab9, \"Vincent Van Gogh - The Starry Night\", 500);\n    }\n\n    function addItem(address _itemOwner, string memory _name, uint _bidStarting) private {\n        address payable highestBidder = address(0x0);\n        itemsCount++;\n        items[itemsCount] = Item(itemsCount, _itemOwner, _name, 0, _bidStarting, highestBidder, false, 0);\n    }\n\n    function bid (uint _ItemId, uint _bidAmount) public payable {\n        // require that they haven't bid before\n        require(msg.sender != items[_ItemId].highestBidder,\"error bidder have already bid\");\n\n        // require a valid item\n        require(_ItemId > 0 && _ItemId <= itemsCount,\"selected item is invalid\");\n        require(_bidAmount > items[_ItemId].bidValueDollar, \"Bid value does not exceed the highest bid.\");\n        require(!items[_ItemId].ended,\"Auction already ended.\");\n        lastBidder = items[_ItemId].highestBidder;\n        if (highestBid != 0) {\n            if (items[_ItemId].bidValueWei < msg.value) {\n                lastBidder.transfer(highestBid);\n            }\n        }\n        // record that bidder has done bidding\n        items[_ItemId].highestBidder = msg.sender;\n        highestBid = msg.value;\n        items[_ItemId].bidValueWei = msg.value;\n        // update item bid value increases\n        items[_ItemId].bidValueDollar = _bidAmount;\n\n        // trigger voted event\n        emit bidEvent(_ItemId, msg.sender, _bidAmount, msg.value);\n\n    }\n\n    function amountBid() public view returns (uint) {\n        return pendingReturns[msg.sender];\n    }\n\n    function withdraw() public {\n        uint amount = pendingReturns[msg.sender];\n        require(amount > 0, \"You dont have any money to withdraw\");\n        if(amount > 0) {\n            pendingReturns[msg.sender] = 0;\n            if (!msg.sender.send(amount)) {\n                // No need to call throw here, just reset the amount owing\n                pendingReturns[msg.sender] = amount;\n            }\n            msg.sender.transfer(amount);\n        }\n    }\n\n    function auctionEnd (uint _ItemId) public {\n        require(msg.sender == items[_ItemId].ItemOwner,\"You are not the owner of this auction.\");\n        require(items[_ItemId].bidValueDollar != 0,\"This Auction doesn't have any bids.\");\n        require(!items[_ItemId].ended,\"You already ended this auction.\");\n        items[_ItemId].ended = true;\n        highestBid = items[_ItemId].bidValueWei;\n        lastBidder = items[_ItemId].highestBidder;\n        emit auctionEnded(lastBidder, highestBid);\n\n        // 3. Interaction\n        msg.sender.transfer(highestBid);\n    }\n\n    function showSender () public view returns (address) {\n        return (msg.sender);\n    }\n}",
  "sourcePath": "C:/Users/litrada.amc/Documents/Blockchain/revisedAuction/contracts/Auction.sol",
  "compiler": {
    "name": "solc",
    "version": "0.5.8+commit.23d335f2.Emscripten.clang"
  },
  "schemaVersion": "3.0.11",
  "updatedAt": "2019-08-16T09:12:16.368Z",
  "devdoc": {
    "methods": {}
  },
  "userdoc": {
    "methods": {}
  }
}