{
  "contractName": "Auction",
  "abi": [
    {
      "constant": true,
      "inputs": [
        {
          "name": "",
          "type": "uint256"
        }
      ],
      "name": "items",
      "outputs": [
        {
          "name": "id",
          "type": "uint256"
        },
        {
          "name": "name",
          "type": "string"
        },
        {
          "name": "bidValue",
          "type": "uint256"
        },
        {
          "name": "bidValueStarting",
          "type": "uint256"
        }
      ],
      "payable": false,
      "stateMutability": "view",
      "type": "function"
    },
    {
      "constant": true,
      "inputs": [],
      "name": "itemsCount",
      "outputs": [
        {
          "name": "",
          "type": "uint256"
        }
      ],
      "payable": false,
      "stateMutability": "view",
      "type": "function"
    },
    {
      "constant": true,
      "inputs": [
        {
          "name": "",
          "type": "address"
        }
      ],
      "name": "bidders",
      "outputs": [
        {
          "name": "",
          "type": "bool"
        }
      ],
      "payable": false,
      "stateMutability": "view",
      "type": "function"
    },
    {
      "inputs": [],
      "payable": false,
      "stateMutability": "nonpayable",
      "type": "constructor"
    },
    {
      "anonymous": false,
      "inputs": [
        {
          "indexed": true,
          "name": "_itemId",
          "type": "uint256"
        }
      ],
      "name": "bidEvent",
      "type": "event"
    },
    {
      "constant": false,
      "inputs": [
        {
          "name": "_ItemId",
          "type": "uint256"
        }
      ],
      "name": "bid",
      "outputs": [],
      "payable": false,
      "stateMutability": "nonpayable",
      "type": "function"
    }
  ],
  "bytecode": "0x608060405234801561001057600080fd5b506100586040518060400160405280600d81526020017f56696e74616765205761746368000000000000000000000000000000000000008152506107d061008760201b60201c565b61008260405180606001604052806023815260200161063d6023913961c35061008760201b60201c565b6101b9565b6002600081548092919060010191905055506040518060800160405280600254815260200183815260200160008152602001828152506001600060025481526020019081526020016000206000820151816000015560208201518160010190805190602001906100f8929190610114565b5060408201518160020155606082015181600301559050505050565b828054600181600116156101000203166002900490600052602060002090601f016020900481019282601f1061015557805160ff1916838001178555610183565b82800160010185558215610183579182015b82811115610182578251825591602001919060010190610167565b5b5090506101909190610194565b5090565b6101b691905b808211156101b257600081600090555060010161019a565b5090565b90565b610475806101c86000396000f3fe608060405234801561001057600080fd5b506004361061004c5760003560e01c8063454a2ab314610051578063bfb231d21461007f578063e2c03ace1461013b578063fcc8f79314610159575b600080fd5b61007d6004803603602081101561006757600080fd5b81019080803590602001909291905050506101b5565b005b6100ab6004803603602081101561009557600080fd5b810190808035906020019092919050505061035b565b6040518085815260200180602001848152602001838152602001828103825285818151815260200191508051906020019080838360005b838110156100fd5780820151818401526020810190506100e2565b50505050905090810190601f16801561012a5780820380516001836020036101000a031916815260200191505b509550505050505060405180910390f35b610143610423565b6040518082815260200191505060405180910390f35b61019b6004803603602081101561016f57600080fd5b81019080803573ffffffffffffffffffffffffffffffffffffffff169060200190929190505050610429565b604051808215151515815260200191505060405180910390f35b6000803373ffffffffffffffffffffffffffffffffffffffff1673ffffffffffffffffffffffffffffffffffffffff16815260200190815260200160002060009054906101000a900460ff161561024f576040517f08c379a0000000000000000000000000000000000000000000000000000000008152600401808060200182810382526000815260200160200191505060405180910390fd5b60008111801561026157506002548111155b6102ae576040517f08c379a0000000000000000000000000000000000000000000000000000000008152600401808060200182810382526000815260200160200191505060405180910390fd5b60016000803373ffffffffffffffffffffffffffffffffffffffff1673ffffffffffffffffffffffffffffffffffffffff16815260200190815260200160002060006101000a81548160ff0219169083151502179055506001600082815260200190815260200160002060020160008154809291906001019190505550807f9ee19366a21f1b4bd881b631cac7e3fd0385339e6cf2dabd03dc301940e4fbdc60405160405180910390a250565b6001602052806000526040600020600091509050806000015490806001018054600181600116156101000203166002900480601f01602080910402602001604051908101604052809291908181526020018280546001816001161561010002031660029004801561040d5780601f106103e25761010080835404028352916020019161040d565b820191906000526020600020905b8154815290600101906020018083116103f057829003601f168201915b5050505050908060020154908060030154905084565b60025481565b60006020528060005260406000206000915054906101000a900460ff168156fea165627a7a72305820335b5f36eea1ff98af3a9b9b31fed6f7eb96f2764dc134f2d33a52e1a8cd7298002956696e63656e742056616e20476f6768202d2054686520537461727279204e69676874",
  "source": "pragma solidity >=0.4.0 <0.6.0;\r\n\r\ncontract Auction {\r\n\r\n    struct Item {\r\n        uint id;\r\n        string name;\r\n        uint bidValue;\r\n        uint bidValueStarting;\r\n    }\r\n\r\n    // Store accounts that have voted\r\n    mapping(address => bool) public bidders;\r\n    // Store Candidates\r\n    // Fetch Candidate\r\n    mapping(uint => Item) public items;\r\n    // Store Candidates Count\r\n    uint public itemsCount;\r\n\r\n    // bid event\r\n    event bidEvent (\r\n        uint indexed _itemId\r\n    );\r\n\r\n    constructor() public {\r\n        addItem(\"Vintage Watch\", 2000);\r\n        addItem(\"Vincent Van Gogh - The Starry Night\", 50000);\r\n    }\r\n\r\n    function addItem(string memory _name, uint _bidStarting) private {\r\n        itemsCount++;\r\n        items[itemsCount] = Item(itemsCount, _name, 0, _bidStarting);\r\n    }\r\n\r\n    function bid (uint _ItemId) public {\r\n        // require that they haven't bid before\r\n        require(!bidders[msg.sender],\"\");\r\n\r\n        // require a valid item\r\n        require(_ItemId > 0 && _ItemId <= itemsCount,\"\");\r\n\r\n        // record that bidder has done bidding\r\n        bidders[msg.sender] = true;\r\n\r\n        // update candidate bid value increases\r\n        //to be changed\r\n        items[_ItemId].bidValue++;\r\n\r\n        // trigger voted event\r\n        emit bidEvent(_ItemId);\r\n    }\r\n}",
  "sourcePath": "C:/Users/litrada.amc/Documents/Blockchain/BidForMe/contracts/Auction.sol",
  "compiler": {
    "name": "solc",
    "version": "0.5.8+commit.23d335f2.Emscripten.clang"
  },
  "schemaVersion": "3.0.11",
  "updatedAt": "2019-08-09T09:27:51.452Z",
  "devdoc": {
    "methods": {}
  },
  "userdoc": {
    "methods": {}
  }
}