{
  "contractName": "Auction",
  "abi": [
    {
      "constant": true,
      "inputs": [
        {
          "name": "",
          "type": "uint256"
        }
      ],
      "name": "items",
      "outputs": [
        {
          "name": "id",
          "type": "uint256"
        },
        {
          "name": "name",
          "type": "string"
        },
        {
          "name": "bidValue",
          "type": "uint256"
        },
        {
          "name": "bidValueStarting",
          "type": "uint256"
        }
      ],
      "payable": false,
      "stateMutability": "view",
      "type": "function"
    },
    {
      "constant": true,
      "inputs": [],
      "name": "itemsCount",
      "outputs": [
        {
          "name": "",
          "type": "uint256"
        }
      ],
      "payable": false,
      "stateMutability": "view",
      "type": "function"
    },
    {
      "inputs": [],
      "payable": false,
      "stateMutability": "nonpayable",
      "type": "constructor"
    }
  ],
  "bytecode": "0x608060405234801561001057600080fd5b506100586040518060400160405280600d81526020017f56696e74616765205761746368000000000000000000000000000000000000008152506107d061008760201b60201c565b6100826040518060600160405280602381526020016103d66023913961c35061008760201b60201c565b6101b8565b60016000815480929190600101919050555060405180608001604052806001548152602001838152602001600081526020018281525060008060015481526020019081526020016000206000820151816000015560208201518160010190805190602001906100f7929190610113565b5060408201518160020155606082015181600301559050505050565b828054600181600116156101000203166002900490600052602060002090601f016020900481019282601f1061015457805160ff1916838001178555610182565b82800160010185558215610182579182015b82811115610181578251825591602001919060010190610166565b5b50905061018f9190610193565b5090565b6101b591905b808211156101b1576000816000905550600101610199565b5090565b90565b61020f806101c76000396000f3fe608060405234801561001057600080fd5b50600436106100365760003560e01c8063bfb231d21461003b578063e2c03ace146100f7575b600080fd5b6100676004803603602081101561005157600080fd5b8101908080359060200190929190505050610115565b6040518085815260200180602001848152602001838152602001828103825285818151815260200191508051906020019080838360005b838110156100b957808201518184015260208101905061009e565b50505050905090810190601f1680156100e65780820380516001836020036101000a031916815260200191505b509550505050505060405180910390f35b6100ff6101dd565b6040518082815260200191505060405180910390f35b6000602052806000526040600020600091509050806000015490806001018054600181600116156101000203166002900480601f0160208091040260200160405190810160405280929190818152602001828054600181600116156101000203166002900480156101c75780601f1061019c576101008083540402835291602001916101c7565b820191906000526020600020905b8154815290600101906020018083116101aa57829003601f168201915b5050505050908060020154908060030154905084565b6001548156fea165627a7a72305820039717320ff943c9023ba65cd6c4530c2dd77fea7e0ebbef330ddcd3efc2c280002956696e63656e742056616e20476f6768202d2054686520537461727279204e69676874",
  "source": "pragma solidity >=0.4.0 <0.6.0;\r\n\r\ncontract Auction {\r\n\r\n    struct Item {\r\n        uint id;\r\n        string name;\r\n        uint bidValue;\r\n        uint bidValueStarting;\r\n    }\r\n\r\n    mapping(uint => Item) public items;\r\n\r\n    uint public itemsCount;\r\n\r\n    constructor() public {\r\n        addItem(\"Vintage Watch\", 2000);\r\n        addItem(\"Vincent Van Gogh - The Starry Night\", 50000);\r\n    }\r\n\r\n    function addItem(string memory _name, uint _bidStarting) private {\r\n        itemsCount++;\r\n        items[itemsCount] = Item(itemsCount, _name, 0, _bidStarting);\r\n    }\r\n}",
  "sourcePath": "C:/Users/litrada.amc/Documents/Blockchain/BFM/contracts/Auction.sol",
  "compiler": {
    "name": "solc",
    "version": "0.5.8+commit.23d335f2.Emscripten.clang"
  },
  "schemaVersion": "3.0.11",
  "updatedAt": "2019-08-08T05:21:24.607Z",
  "devdoc": {
    "methods": {}
  },
  "userdoc": {
    "methods": {}
  }
}